{
  "abi": [
    {
      "inputs": [
        {
          "components": [
            {
              "internalType": "contract LinkTokenInterface",
              "name": "LINKAddress",
              "type": "address"
            },
            {
              "internalType": "contract AggregatorV3Interface",
              "name": "monitoredFeed",
              "type": "address"
            },
            {
              "internalType": "uint256",
              "name": "initialMaxPoolSize",
              "type": "uint256"
            },
            {
              "internalType": "uint256",
              "name": "initialMaxCommunityStakeAmount",
              "type": "uint256"
            },
            {
              "internalType": "uint256",
              "name": "initialMaxOperatorStakeAmount",
              "type": "uint256"
            },
            {
              "internalType": "uint256",
              "name": "minCommunityStakeAmount",
              "type": "uint256"
            },
            {
              "internalType": "uint256",
              "name": "minOperatorStakeAmount",
              "type": "uint256"
            },
            {
              "internalType": "uint256",
              "name": "priorityPeriodThreshold",
              "type": "uint256"
            },
            {
              "internalType": "uint256",
              "name": "regularPeriodThreshold",
              "type": "uint256"
            },
            {
              "internalType": "uint256",
              "name": "maxAlertingRewardAmount",
              "type": "uint256"
            },
            {
              "internalType": "uint256",
              "name": "minInitialOperatorCount",
              "type": "uint256"
            },
            {
              "internalType": "uint256",
              "name": "minRewardDuration",
              "type": "uint256"
            },
            {
              "internalType": "uint256",
              "name": "slashableDuration",
              "type": "uint256"
            },
            {
              "internalType": "uint256",
              "name": "delegationRateDenominator",
              "type": "uint256"
            }
          ],
          "internalType": "struct Staking.PoolConstructorParams",
          "name": "params",
          "type": "tuple"
        }
      ],
      "stateMutability": "nonpayable",
      "type": "constructor"
    },
    {
      "inputs": [],
      "name": "AccessForbidden",
      "type": "error"
    },
    {
      "inputs": [
        {
          "internalType": "uint256",
          "name": "roundId",
          "type": "uint256"
        }
      ],
      "name": "AlertAlreadyExists",
      "type": "error"
    },
    {
      "inputs": [],
      "name": "AlertInvalid",
      "type": "error"
    },
    {
      "inputs": [],
      "name": "CastError",
      "type": "error"
    },
    {
      "inputs": [
        {
          "internalType": "uint256",
          "name": "remainingAmount",
          "type": "uint256"
        }
      ],
      "name": "ExcessiveStakeAmount",
      "type": "error"
    },
    {
      "inputs": [
        {
          "internalType": "address",
          "name": "staker",
          "type": "address"
        }
      ],
      "name": "ExistingStakeFound",
      "type": "error"
    },
    {
      "inputs": [
        {
          "internalType": "uint256",
          "name": "currentOperatorsCount",
          "type": "uint256"
        },
        {
          "internalType": "uint256",
          "name": "minInitialOperatorsCount",
          "type": "uint256"
        }
      ],
      "name": "InadequateInitialOperatorsCount",
      "type": "error"
    },
    {
      "inputs": [
        {
          "internalType": "uint256",
          "name": "remainingPoolSize",
          "type": "uint256"
        },
        {
          "internalType": "uint256",
          "name": "requiredPoolSize",
          "type": "uint256"
        }
      ],
      "name": "InsufficientRemainingPoolSpace",
      "type": "error"
    },
    {
      "inputs": [
        {
          "internalType": "uint256",
          "name": "requiredAmount",
          "type": "uint256"
        }
      ],
      "name": "InsufficientStakeAmount",
      "type": "error"
    },
    {
      "inputs": [],
      "name": "InvalidDelegationRate",
      "type": "error"
    },
    {
      "inputs": [],
      "name": "InvalidMaxAlertingRewardAmount",
      "type": "error"
    },
    {
      "inputs": [
        {
          "internalType": "uint256",
          "name": "maxStakeAmount",
          "type": "uint256"
        }
      ],
      "name": "InvalidMaxStakeAmount",
      "type": "error"
    },
    {
      "inputs": [],
      "name": "InvalidMigrationTarget",
      "type": "error"
    },
    {
      "inputs": [],
      "name": "InvalidMinCommunityStakeAmount",
      "type": "error"
    },
    {
      "inputs": [],
      "name": "InvalidMinOperatorStakeAmount",
      "type": "error"
    },
    {
      "inputs": [
        {
          "internalType": "uint256",
          "name": "maxPoolSize",
          "type": "uint256"
        }
      ],
      "name": "InvalidPoolSize",
      "type": "error"
    },
    {
      "inputs": [
        {
          "internalType": "bool",
          "name": "currentStatus",
          "type": "bool"
        },
        {
          "internalType": "bool",
          "name": "requiredStatus",
          "type": "bool"
        }
      ],
      "name": "InvalidPoolStatus",
      "type": "error"
    },
    {
      "inputs": [],
      "name": "InvalidRegularPeriodThreshold",
      "type": "error"
    },
    {
      "inputs": [],
      "name": "InvalidZeroAddress",
      "type": "error"
    },
    {
      "inputs": [],
      "name": "MerkleRootNotSet",
      "type": "error"
    },
    {
      "inputs": [
        {
          "internalType": "address",
          "name": "operator",
          "type": "address"
        }
      ],
      "name": "OperatorAlreadyExists",
      "type": "error"
    },
    {
      "inputs": [
        {
          "internalType": "address",
          "name": "operator",
          "type": "address"
        }
      ],
      "name": "OperatorDoesNotExist",
      "type": "error"
    },
    {
      "inputs": [
        {
          "internalType": "address",
          "name": "operator",
          "type": "address"
        }
      ],
      "name": "OperatorIsAssignedToFeed",
      "type": "error"
    },
    {
      "inputs": [
        {
          "internalType": "address",
          "name": "operator",
          "type": "address"
        }
      ],
      "name": "OperatorIsLocked",
      "type": "error"
    },
    {
      "inputs": [],
      "name": "RewardDurationTooShort",
      "type": "error"
    },
    {
      "inputs": [],
      "name": "SenderNotLinkToken",
      "type": "error"
    },
    {
      "inputs": [
        {
          "internalType": "address",
          "name": "staker",
          "type": "address"
        }
      ],
      "name": "StakeNotFound",
      "type": "error"
    },
    {
      "anonymous": false,
      "inputs": [
        {
          "indexed": false,
          "internalType": "address",
          "name": "alerter",
          "type": "address"
        },
        {
          "indexed": false,
          "internalType": "uint256",
          "name": "roundId",
          "type": "uint256"
        },
        {
          "indexed": false,
          "internalType": "uint256",
          "name": "rewardAmount",
          "type": "uint256"
        }
      ],
      "name": "AlertRaised",
      "type": "event"
    },
    {
      "anonymous": false,
      "inputs": [
        {
          "indexed": false,
          "internalType": "bytes32",
          "name": "newMerkleRoot",
          "type": "bytes32"
        }
      ],
      "name": "MerkleRootChanged",
      "type": "event"
    },
    {
      "anonymous": false,
      "inputs": [
        {
          "indexed": false,
          "internalType": "address",
          "name": "staker",
          "type": "address"
        },
        {
          "indexed": false,
          "internalType": "uint256",
          "name": "principal",
          "type": "uint256"
        },
        {
          "indexed": false,
          "internalType": "uint256",
          "name": "baseReward",
          "type": "uint256"
        },
        {
          "indexed": false,
          "internalType": "uint256",
          "name": "delegationReward",
          "type": "uint256"
        },
        {
          "indexed": false,
          "internalType": "bytes",
          "name": "data",
          "type": "bytes"
        }
      ],
      "name": "Migrated",
      "type": "event"
    },
    {
      "anonymous": false,
      "inputs": [
        {
          "indexed": false,
          "internalType": "address",
          "name": "migrationTarget",
          "type": "address"
        }
      ],
      "name": "MigrationTargetAccepted",
      "type": "event"
    },
    {
      "anonymous": false,
      "inputs": [
        {
          "indexed": false,
          "internalType": "address",
          "name": "migrationTarget",
          "type": "address"
        }
      ],
      "name": "MigrationTargetProposed",
      "type": "event"
    },
    {
      "anonymous": false,
      "inputs": [
        {
          "indexed": true,
          "internalType": "address",
          "name": "from",
          "type": "address"
        },
        {
          "indexed": true,
          "internalType": "address",
          "name": "to",
          "type": "address"
        }
      ],
      "name": "OwnershipTransferRequested",
      "type": "event"
    },
    {
      "anonymous": false,
      "inputs": [
        {
          "indexed": true,
          "internalType": "address",
          "name": "from",
          "type": "address"
        },
        {
          "indexed": true,
          "internalType": "address",
          "name": "to",
          "type": "address"
        }
      ],
      "name": "OwnershipTransferred",
      "type": "event"
    },
    {
      "anonymous": false,
      "inputs": [
        {
          "indexed": false,
          "internalType": "address",
          "name": "account",
          "type": "address"
        }
      ],
      "name": "Paused",
      "type": "event"
    },
    {
      "anonymous": false,
      "inputs": [
        {
          "indexed": false,
          "internalType": "address",
          "name": "staker",
          "type": "address"
        },
        {
          "indexed": false,
          "internalType": "uint256",
          "name": "newStake",
          "type": "uint256"
        },
        {
          "indexed": false,
          "internalType": "uint256",
          "name": "totalStake",
          "type": "uint256"
        }
      ],
      "name": "Staked",
      "type": "event"
    },
    {
      "anonymous": false,
      "inputs": [
        {
          "indexed": false,
          "internalType": "address",
          "name": "account",
          "type": "address"
        }
      ],
      "name": "Unpaused",
      "type": "event"
    },
    {
      "anonymous": false,
      "inputs": [
        {
          "indexed": false,
          "internalType": "address",
          "name": "staker",
          "type": "address"
        },
        {
          "indexed": false,
          "internalType": "uint256",
          "name": "principal",
          "type": "uint256"
        },
        {
          "indexed": false,
          "internalType": "uint256",
          "name": "baseReward",
          "type": "uint256"
        },
        {
          "indexed": false,
          "internalType": "uint256",
          "name": "delegationReward",
          "type": "uint256"
        }
      ],
      "name": "Unstaked",
      "type": "event"
    },
    {
      "inputs": [],
      "name": "acceptMigrationTarget",
      "outputs": [],
      "stateMutability": "nonpayable",
      "type": "function"
    },
    {
      "inputs": [],
      "name": "acceptOwnership",
      "outputs": [],
      "stateMutability": "nonpayable",
      "type": "function"
    },
    {
      "inputs": [
        {
          "internalType": "address[]",
          "name": "operators",
          "type": "address[]"
        }
      ],
      "name": "addOperators",
      "outputs": [],
      "stateMutability": "nonpayable",
      "type": "function"
    },
    {
      "inputs": [
        {
          "internalType": "uint256",
          "name": "amount",
          "type": "uint256"
        }
      ],
      "name": "addReward",
      "outputs": [],
      "stateMutability": "nonpayable",
      "type": "function"
    },
    {
      "inputs": [
        {
          "internalType": "address",
          "name": "alerter",
          "type": "address"
        }
      ],
      "name": "canAlert",
      "outputs": [
        {
          "internalType": "bool",
          "name": "",
          "type": "bool"
        }
      ],
      "stateMutability": "view",
      "type": "function"
    },
    {
      "inputs": [
        {
          "internalType": "uint256",
          "name": "newRate",
          "type": "uint256"
        }
      ],
      "name": "changeRewardRate",
      "outputs": [],
      "stateMutability": "nonpayable",
      "type": "function"
    },
    {
      "inputs": [],
      "name": "conclude",
      "outputs": [],
      "stateMutability": "nonpayable",
      "type": "function"
    },
    {
      "inputs": [],
      "name": "emergencyPause",
      "outputs": [],
      "stateMutability": "nonpayable",
      "type": "function"
    },
    {
      "inputs": [],
      "name": "emergencyUnpause",
      "outputs": [],
      "stateMutability": "nonpayable",
      "type": "function"
    },
    {
      "inputs": [],
      "name": "getAvailableReward",
      "outputs": [
        {
          "internalType": "uint256",
          "name": "",
          "type": "uint256"
        }
      ],
      "stateMutability": "view",
      "type": "function"
    },
    {
      "inputs": [
        {
          "internalType": "address",
          "name": "staker",
          "type": "address"
        }
      ],
      "name": "getBaseReward",
      "outputs": [
        {
          "internalType": "uint256",
          "name": "",
          "type": "uint256"
        }
      ],
      "stateMutability": "view",
      "type": "function"
    },
    {
      "inputs": [],
      "name": "getChainlinkToken",
      "outputs": [
        {
          "internalType": "address",
          "name": "",
          "type": "address"
        }
      ],
      "stateMutability": "view",
      "type": "function"
    },
    {
      "inputs": [],
      "name": "getCommunityStakerLimits",
      "outputs": [
        {
          "internalType": "uint256",
          "name": "",
          "type": "uint256"
        },
        {
          "internalType": "uint256",
          "name": "",
          "type": "uint256"
        }
      ],
      "stateMutability": "view",
      "type": "function"
    },
    {
      "inputs": [],
      "name": "getDelegatesCount",
      "outputs": [
        {
          "internalType": "uint256",
          "name": "",
          "type": "uint256"
        }
      ],
      "stateMutability": "view",
      "type": "function"
    },
    {
      "inputs": [],
      "name": "getDelegationRateDenominator",
      "outputs": [
        {
          "internalType": "uint256",
          "name": "",
          "type": "uint256"
        }
      ],
      "stateMutability": "view",
      "type": "function"
    },
    {
      "inputs": [
        {
          "internalType": "address",
          "name": "staker",
          "type": "address"
        }
      ],
      "name": "getDelegationReward",
      "outputs": [
        {
          "internalType": "uint256",
          "name": "",
          "type": "uint256"
        }
      ],
      "stateMutability": "view",
      "type": "function"
    },
    {
      "inputs": [],
      "name": "getEarnedBaseRewards",
      "outputs": [
        {
          "internalType": "uint256",
          "name": "",
          "type": "uint256"
        }
      ],
      "stateMutability": "view",
      "type": "function"
    },
    {
      "inputs": [],
      "name": "getEarnedDelegationRewards",
      "outputs": [
        {
          "internalType": "uint256",
          "name": "",
          "type": "uint256"
        }
      ],
      "stateMutability": "view",
      "type": "function"
    },
    {
      "inputs": [],
      "name": "getFeedOperators",
      "outputs": [
        {
          "internalType": "address[]",
          "name": "",
          "type": "address[]"
        }
      ],
      "stateMutability": "view",
      "type": "function"
    },
    {
      "inputs": [],
      "name": "getMaxPoolSize",
      "outputs": [
        {
          "internalType": "uint256",
          "name": "",
          "type": "uint256"
        }
      ],
      "stateMutability": "view",
      "type": "function"
    },
    {
      "inputs": [],
      "name": "getMerkleRoot",
      "outputs": [
        {
          "internalType": "bytes32",
          "name": "",
          "type": "bytes32"
        }
      ],
      "stateMutability": "view",
      "type": "function"
    },
    {
      "inputs": [],
      "name": "getMigrationTarget",
      "outputs": [
        {
          "internalType": "address",
          "name": "",
          "type": "address"
        }
      ],
      "stateMutability": "view",
      "type": "function"
    },
    {
      "inputs": [],
      "name": "getMonitoredFeed",
      "outputs": [
        {
          "internalType": "address",
          "name": "",
          "type": "address"
        }
      ],
      "stateMutability": "view",
      "type": "function"
    },
    {
      "inputs": [],
      "name": "getOperatorLimits",
      "outputs": [
        {
          "internalType": "uint256",
          "name": "",
          "type": "uint256"
        },
        {
          "internalType": "uint256",
          "name": "",
          "type": "uint256"
        }
      ],
      "stateMutability": "view",
      "type": "function"
    },
    {
      "inputs": [],
      "name": "getRewardRate",
      "outputs": [
        {
          "internalType": "uint256",
          "name": "",
          "type": "uint256"
        }
      ],
      "stateMutability": "view",
      "type": "function"
    },
    {
      "inputs": [],
      "name": "getRewardTimestamps",
      "outputs": [
        {
          "internalType": "uint256",
          "name": "",
          "type": "uint256"
        },
        {
          "internalType": "uint256",
          "name": "",
          "type": "uint256"
        }
      ],
      "stateMutability": "view",
      "type": "function"
    },
    {
      "inputs": [
        {
          "internalType": "address",
          "name": "staker",
          "type": "address"
        }
      ],
      "name": "getStake",
      "outputs": [
        {
          "internalType": "uint256",
          "name": "",
          "type": "uint256"
        }
      ],
      "stateMutability": "view",
      "type": "function"
    },
    {
      "inputs": [],
      "name": "getTotalCommunityStakedAmount",
      "outputs": [
        {
          "internalType": "uint256",
          "name": "",
          "type": "uint256"
        }
      ],
      "stateMutability": "view",
      "type": "function"
    },
    {
      "inputs": [],
      "name": "getTotalDelegatedAmount",
      "outputs": [
        {
          "internalType": "uint256",
          "name": "",
          "type": "uint256"
        }
      ],
      "stateMutability": "view",
      "type": "function"
    },
    {
      "inputs": [],
      "name": "getTotalRemovedAmount",
      "outputs": [
        {
          "internalType": "uint256",
          "name": "",
          "type": "uint256"
        }
      ],
      "stateMutability": "view",
      "type": "function"
    },
    {
      "inputs": [],
      "name": "getTotalStakedAmount",
      "outputs": [
        {
          "internalType": "uint256",
          "name": "",
          "type": "uint256"
        }
      ],
      "stateMutability": "view",
      "type": "function"
    },
    {
      "inputs": [
        {
          "internalType": "address",
          "name": "staker",
          "type": "address"
        },
        {
          "internalType": "bytes32[]",
          "name": "proof",
          "type": "bytes32[]"
        }
      ],
      "name": "hasAccess",
      "outputs": [
        {
          "internalType": "bool",
          "name": "",
          "type": "bool"
        }
      ],
      "stateMutability": "view",
      "type": "function"
    },
    {
      "inputs": [],
      "name": "isActive",
      "outputs": [
        {
          "internalType": "bool",
          "name": "",
          "type": "bool"
        }
      ],
      "stateMutability": "view",
      "type": "function"
    },
    {
      "inputs": [
        {
          "internalType": "address",
          "name": "staker",
          "type": "address"
        }
      ],
      "name": "isOperator",
      "outputs": [
        {
          "internalType": "bool",
          "name": "",
          "type": "bool"
        }
      ],
      "stateMutability": "view",
      "type": "function"
    },
    {
      "inputs": [],
      "name": "isPaused",
      "outputs": [
        {
          "internalType": "bool",
          "name": "",
          "type": "bool"
        }
      ],
      "stateMutability": "view",
      "type": "function"
    },
    {
      "inputs": [
        {
          "internalType": "bytes",
          "name": "data",
          "type": "bytes"
        }
      ],
      "name": "migrate",
      "outputs": [],
      "stateMutability": "nonpayable",
      "type": "function"
    },
    {
      "inputs": [
        {
          "internalType": "address",
          "name": "sender",
          "type": "address"
        },
        {
          "internalType": "uint256",
          "name": "amount",
          "type": "uint256"
        },
        {
          "internalType": "bytes",
          "name": "data",
          "type": "bytes"
        }
      ],
      "name": "onTokenTransfer",
      "outputs": [],
      "stateMutability": "nonpayable",
      "type": "function"
    },
    {
      "inputs": [],
      "name": "owner",
      "outputs": [
        {
          "internalType": "address",
          "name": "",
          "type": "address"
        }
      ],
      "stateMutability": "view",
      "type": "function"
    },
    {
      "inputs": [],
      "name": "paused",
      "outputs": [
        {
          "internalType": "bool",
          "name": "",
          "type": "bool"
        }
      ],
      "stateMutability": "view",
      "type": "function"
    },
    {
      "inputs": [
        {
          "internalType": "address",
          "name": "migrationTarget",
          "type": "address"
        }
      ],
      "name": "proposeMigrationTarget",
      "outputs": [],
      "stateMutability": "nonpayable",
      "type": "function"
    },
    {
      "inputs": [],
      "name": "raiseAlert",
      "outputs": [],
      "stateMutability": "nonpayable",
      "type": "function"
    },
    {
      "inputs": [
        {
          "internalType": "address[]",
          "name": "operators",
          "type": "address[]"
        }
      ],
      "name": "removeOperators",
      "outputs": [],
      "stateMutability": "nonpayable",
      "type": "function"
    },
    {
      "inputs": [
        {
          "internalType": "address[]",
          "name": "operators",
          "type": "address[]"
        }
      ],
      "name": "setFeedOperators",
      "outputs": [],
      "stateMutability": "nonpayable",
      "type": "function"
    },
    {
      "inputs": [
        {
          "internalType": "bytes32",
          "name": "newMerkleRoot",
          "type": "bytes32"
        }
      ],
      "name": "setMerkleRoot",
      "outputs": [],
      "stateMutability": "nonpayable",
      "type": "function"
    },
    {
      "inputs": [
        {
          "internalType": "uint256",
          "name": "maxPoolSize",
          "type": "uint256"
        },
        {
          "internalType": "uint256",
          "name": "maxCommunityStakeAmount",
          "type": "uint256"
        },
        {
          "internalType": "uint256",
          "name": "maxOperatorStakeAmount",
          "type": "uint256"
        }
      ],
      "name": "setPoolConfig",
      "outputs": [],
      "stateMutability": "nonpayable",
      "type": "function"
    },
    {
      "inputs": [
        {
          "internalType": "uint256",
          "name": "amount",
          "type": "uint256"
        },
        {
          "internalType": "uint256",
          "name": "initialRewardRate",
          "type": "uint256"
        }
      ],
      "name": "start",
      "outputs": [],
      "stateMutability": "nonpayable",
      "type": "function"
    },
    {
      "inputs": [
        {
          "internalType": "address",
          "name": "to",
          "type": "address"
        }
      ],
      "name": "transferOwnership",
      "outputs": [],
      "stateMutability": "nonpayable",
      "type": "function"
    },
    {
      "inputs": [],
      "name": "typeAndVersion",
      "outputs": [
        {
          "internalType": "string",
          "name": "",
          "type": "string"
        }
      ],
      "stateMutability": "pure",
      "type": "function"
    },
    {
      "inputs": [],
      "name": "unstake",
      "outputs": [],
      "stateMutability": "nonpayable",
      "type": "function"
    },
    {
      "inputs": [],
      "name": "withdrawRemovedStake",
      "outputs": [],
      "stateMutability": "nonpayable",
      "type": "function"
    },
    {
      "inputs": [],
      "name": "withdrawUnusedReward",
      "outputs": [],
      "stateMutability": "nonpayable",
      "type": "function"
    }
  ],
  "bytecode": {
    "object": "0x3462000696576200632d388190036101e0601f8201601f19168101906001600160401b038211908210176200059e576101c09282916040526101e0391262000696576040516101c081016001600160401b038111828210176200059e576040526101e0516001600160a01b038116810362000696578152610200516001600160a01b0381168103620006965760208201526102205160408201526102405160608201526102605160808201526102805160a08201526102a05160c08201526102c05160e08201526102e05161010082015261030051610120820152610320516101408201526103405161016082015261036051610180820152610380516101a082015233156200065157600080546001600160a01b031916331790556001805460ff60a01b1916905580516001600160a01b0316156200063f5760208101516001600160a01b0316156200063f576101a0810151156200062d5761010081015160e082015110156200061b5760c081015115620006095760c0810151608082015110620006095760a0810151606082015110620005f757610120810151608082015110620005e5576040810151906060810151608082015190838211620005b457600554936001600160601b0385168110620005cd57606085901c6001600160501b03168210620005b457828560b01c116200056f576040516001600160401b0360808201908111908211176200059e57608081016040526004549060ff82161515815260ff8260081c169081602082015260606040820193600180831b038160101c168552600180831b039060701c169101528060001904851181151516620005885790516001600160601b0316908402908101908110620005885781106200056f576001600160601b038516819003620004fd575b506005546101a09450606081901c6001600160501b03168290036200049b575b5050600554818160b01c0362000442575b505060018060a01b0381511660805260018060a01b0360208201511660a05260e081015160c05261010081015160e0526101208101516101005260c08101516101205260a0810151610140526101408101516101605261016081015161018052610180810151825201516101c052604051615c7c9081620006b182396080518181816104eb01528181610798015281816110700152818161169c01528181611ba801528181612c2501528181614a2c0152614cc8015260a05181818161148401528181612ad701526148ae015260c051818181612b2601526148fd015260e051818181612b57015261492e0152610100518181816157de01526158070152610120518181816114eb01528181612c8a01526152bb0152610140518181816104510152614f7001526101605181611b3e015261018051818181611116015281816112070152611c1301526101a05181612c6901526101c051818181610c3e01528181614b3301528181614c860152818161500101526156b10152f35b7f816587cb2e773af4f3689a03d7520fabff3462605ded374b485b13994c0d7b52916020916001600160b01b03196200047b836200069b565b60b01b169060018060b01b031617600555604051908152a13880620002c7565b7fb5f554e5ef00806bace1edbb84186512ebcefa2af7706085143f501f29314df791602091600160601b600160b01b03620004d6836200069b565b60601b16600160601b600160b01b03199190911617600555604051908152a13880620002b6565b6001600160601b0381116200055d576001600160601b03199094166001600160601b038516176005556040519384526101a0937f7f4f497e086b2eb55f8a9885ba00d33399bbe0ebcb92ea092834386435a1b9c090602090a13862000296565b60405163408ba96f60e11b8152600490fd5b60405163bc91aa3360e01b815260048101849052602490fd5b634e487b7160e01b600052601160045260246000fd5b634e487b7160e01b600052604160045260246000fd5b60405163bc91aa3360e01b815260048101839052602490fd5b60249060405190630f9e1c3b60e11b82526004820152fd5b60405163a9be3a0960e01b8152600490fd5b60405163941b857f60e01b8152600490fd5b6040516384dada8560e01b8152600490fd5b6040516310919fb960e11b8152600490fd5b60405163027953ef60e61b8152600490fd5b60405163f6b2911f60e01b8152600490fd5b60405162461bcd60e51b815260206004820152601860248201527f43616e6e6f7420736574206f776e657220746f207a65726f00000000000000006044820152606490fd5b600080fd5b6001600160501b03908181116200055d57169056fe60806040526004361015610013575b600080fd5b60003560e01c8063049b2ca0146104065780630641bdd8146103fd5780630fbc8f5b146103f4578063165d35e1146103eb578063181f5a77146103e25780631a9d4c7c146103d95780631ddb5552146103d057806322f3e2d4146103c75780632def6620146103be57806332e28850146103b557806338adb6f0146103ac57806349590657146103a35780634a4e3bd51461039a57806351858e271461039157806359f01879146103885780635aa6e0131461037f5780635c975abb1461029e5780635e8b40d7146103765780635fec60f81461036d57806363b2c85a146103645780636d70f7ae1461035b578063741040021461035257806374de4ec41461034957806374f237c41461034057806379ba5097146103375780637a7664601461032e5780637cb64759146103255780637e1a37861461031c5780638019e7d01461031357806383db28a01461030a57806387e900b1146103015780638856398f146102f85780638932a90d146102ef5780638a44f337146102e65780638da5cb5b146102dd5780638fb4b573146102d45780639a109bc2146102cb5780639d0a3864146102c2578063a07aea1c146102b9578063a4c0ed36146102b0578063a7a2f5aa146102a7578063b187bd261461029e578063bfbd9b1b14610295578063c1852f581461028c578063d365a37714610283578063da9c732f1461027a578063e0974ea514610271578063e5f9297314610268578063e937fdaa1461025f578063ebdb56f3146102565763f2fde38b1461024e57600080fd5b61000e613173565b5061000e6130e1565b5061000e612fe2565b5061000e612e50565b5061000e612e34565b5061000e612a3f565b5061000e61255d565b5061000e612535565b5061000e6122e6565b5061000e610bfe565b5061000e6122ca565b5061000e612244565b5061000e611e8f565b5061000e611d96565b5061000e611c91565b5061000e611b17565b5061000e611ae2565b5061000e611728565b5061000e61151a565b5061000e6114d0565b5061000e6114a8565b5061000e611456565b5061000e611437565b5061000e61140c565b5061000e6113bf565b5061000e611362565b5061000e611235565b5061000e611176565b5061000e610fe4565b5061000e610f9f565b5061000e610f4e565b5061000e610cfa565b5061000e610cab565b5061000e610c25565b5061000e610a3d565b5061000e610a0c565b5061000e610977565b5061000e61089f565b5061000e610880565b5061000e610864565b5061000e610842565b5061000e6106c4565b5061000e61069e565b5061000e610669565b5061000e6105cc565b5061000e61056d565b5061000e6104bd565b5061000e610490565b5061000e610436565b503461000e57600060031936011261000e5760206bffffffffffffffffffffffff60045460101c16604051908152f35b503461000e57600060031936011261000e57600554604080517f0000000000000000000000000000000000000000000000000000000000000000815260609290921c69ffffffffffffffffffff16602083015290f35b0390f35b503461000e57600060031936011261000e5760206bffffffffffffffffffffffff60055416604051908152f35b503461000e57600060031936011261000e57602060405173ffffffffffffffffffffffffffffffffffffffff7f0000000000000000000000000000000000000000000000000000000000000000168152f35b919082519283825260005b8481106105595750507fffffffffffffffffffffffffffffffffffffffffffffffffffffffffffffffe0601f8460006020809697860101520116010190565b60208183018101518483018201520161051a565b503461000e57600060031936011261000e5761048c60405161058e81611d12565b600d81527f5374616b696e6720302e312e3000000000000000000000000000000000000000602082015260405191829160208352602083019061050f565b503461000e57600060031936011261000e5760206105e861591f565b64e8d4a5100061063c6105f9614c70565b926bffffffffffffffffffffffff600a541693810390811161065c575b6106376106216137d4565b9169ffffffffffffffffffff6009541690613380565b613380565b04810390811161064f575b604051908152f35b6106576132f5565b610647565b6106646132f5565b610616565b503461000e57600060031936011261000e57602073ffffffffffffffffffffffffffffffffffffffff600f5416604051908152f35b503461000e57600060031936011261000e5760206106ba6149cc565b6040519015158152f35b503461000e5760008060031936011261083f576106df6149cc565b6108075761077e602061073e6107396106f7336154ae565b92917f204fccf0d92ed8d48f204adb39b2e81e92bad0dedb93f5716ca9478cfb57de0060806040513381528389820152846040820152866060820152a1613407565b613407565b6040517fa9059cbb000000000000000000000000000000000000000000000000000000008152336004820152602481019190915291829081906044820190565b03818573ffffffffffffffffffffffffffffffffffffffff7f0000000000000000000000000000000000000000000000000000000000000000165af180156107fa575b6107cc575b50604051f35b6107ec9060203d81116107f3575b6107e48183611d2e565b810190613874565b50386107c6565b503d6107da565b61080261388c565b6107c1565b604490604051907fa30a70c2000000000000000000000000000000000000000000000000000000008252600160048301526024820152fd5b80fd5b503461000e57600060031936011261000e57602060ff60085416604051908152f35b503461000e57600060031936011261000e57602061064761591f565b503461000e57600060031936011261000e576020601154604051908152f35b503461000e57600060031936011261000e576108b9615bf0565b60015460ff8160a01c1615610919577fffffffffffffffffffffff00ffffffffffffffffffffffffffffffffffffffff166001557f5db9ee0a495bf2e6ff9c91a7834c1ba4fdd244a5e8aa4e537bd38aeae4b073aa6020604051338152a1005b60646040517f08c379a000000000000000000000000000000000000000000000000000000000815260206004820152601460248201527f5061757361626c653a206e6f74207061757365640000000000000000000000006044820152fd5b503461000e57600060031936011261000e57610991615bf0565b740100000000000000000000000000000000000000007fffffffffffffffffffffff00ffffffffffffffffffffffffffffffffffffffff6001546109db60ff8260a01c1615614e51565b16176001557f62e78cea01bee320cd4e420270b5ea74000d11b0c9f74754ebdbfc544b05a2586020604051338152a1005b503461000e57600060031936011261000e57600c54600b546040805163ffffffff9093168352602083019190915290f35b503461000e5760008060031936011261083f57610a586149cc565b61080757610ab2610aa1610a8c3373ffffffffffffffffffffffffffffffffffffffff166000526002602052604060002090565b5460701c6bffffffffffffffffffffffff1690565b6bffffffffffffffffffffffff1690565b8015610bc957602081610ad2610acd61077e94600654613325565b600655565b610b27610aff3373ffffffffffffffffffffffffffffffffffffffff166000526002602052604060002090565b7fffffffffffff000000000000000000000000ffffffffffffffffffffffffffff8154169055565b7f204fccf0d92ed8d48f204adb39b2e81e92bad0dedb93f5716ca9478cfb57de0060405180610b86843383606090600092949373ffffffffffffffffffffffffffffffffffffffff608083019616825260208201528260408201520152565b0390a16040517fa9059cbb000000000000000000000000000000000000000000000000000000008152336004820152602481019190915291829081906044820190565b6040517fe4adde72000000000000000000000000000000000000000000000000000000008152336004820152602490fd5b0390fd5b503461000e57600060031936011261000e57602060ff60015460a01c166040519015158152f35b503461000e57600060031936011261000e5760206040517f00000000000000000000000000000000000000000000000000000000000000008152f35b90815180825260208080930193019160005b828110610c81575050505090565b835173ffffffffffffffffffffffffffffffffffffffff1685529381019392810192600101610c73565b503461000e57600060031936011261000e5761048c610cc8613f93565b604051918291602083526020830190610c61565b73ffffffffffffffffffffffffffffffffffffffff81160361000e57565b503461000e57602060031936011261000e57600435610d1881610cdc565b610d20615bf0565b803b158015610f2f575b8015610f0b575b8015610ee7575b8015610e39575b610e0f57610e0a7f5c74c441be501340b2713817a6c6975e6f3d4a4ae39fa1ac0bf75d3c54a0cad391610d957fffffffffffffffffffffffff0000000000000000000000000000000000000000600f5416600f55565b610dda8173ffffffffffffffffffffffffffffffffffffffff167fffffffffffffffffffffffff0000000000000000000000000000000000000000600d541617600d55565b610de342600e55565b60405173ffffffffffffffffffffffffffffffffffffffff90911681529081906020820190565b0390a1005b60046040517f367a1038000000000000000000000000000000000000000000000000000000008152fd5b506040517f01ffc9a70000000000000000000000000000000000000000000000000000000081527fa4c0ed3600000000000000000000000000000000000000000000000000000000600482015260208160248173ffffffffffffffffffffffffffffffffffffffff86165afa908115610eda575b600091610ebc575b5015610d3f565b610ed4915060203d81116107f3576107e48183611d2e565b38610eb5565b610ee261388c565b610ead565b50600f5473ffffffffffffffffffffffffffffffffffffffff828116911614610d38565b50600d5473ffffffffffffffffffffffffffffffffffffffff828116911614610d31565b503073ffffffffffffffffffffffffffffffffffffffff821614610d2a565b503461000e57602060031936011261000e5773ffffffffffffffffffffffffffffffffffffffff600435610f8181610cdc565b166000526002602052602060ff604060002054166040519015158152f35b503461000e57600060031936011261000e576020610fbb614c70565b64e8d4a5100061063c6bffffffffffffffffffffffff600a5460601c16926106376106216137d4565b503461000e57602060031936011261000e577fde88a922e0d3b88b24e9623efeb464919c6bf9f66857a65e2bfcf2ce87a9433d610e0a600435611025615bf0565b61102d615829565b6040517f23b872dd0000000000000000000000000000000000000000000000000000000081523360048201523060248201526044810182905260208160648160007f000000000000000000000000000000000000000000000000000000000000000073ffffffffffffffffffffffffffffffffffffffff165af18015611169575b61114b575b5061113b6110d1610aa16005546bffffffffffffffffffffffff1690565b6110d961591f565b906111016110f260095469ffffffffffffffffffff1690565b69ffffffffffffffffffff1690565b9061110a6149e3565b91611113614c70565b937f000000000000000000000000000000000000000000000000000000000000000092613414565b6040519081529081906020820190565b6111629060203d81116107f3576107e48183611d2e565b50386110b3565b61117161388c565b6110ae565b503461000e57602060031936011261000e57600435611193615bf0565b61119b615829565b801561000e5760207f1e3be2efa25bca5bff2215c7b30b31086e703d6aa7d9b9a1f8ba62c5291219ad9161122c6111d0614c70565b6111d981613b20565b6111e1613a4f565b6bffffffffffffffffffffffff600554166111fa61591f565b90846112046149e3565b927f000000000000000000000000000000000000000000000000000000000000000092613414565b604051908152a1005b503461000e5760008060031936011261083f5773ffffffffffffffffffffffffffffffffffffffff8060015416330361130457815473ffffffffffffffffffffffffffffffffffffffff16600080547fffffffffffffffffffffffff000000000000000000000000000000000000000016331790556112d77fffffffffffffffffffffffff000000000000000000000000000000000000000060015416600155565b604051913391167f8be0079c531659141344cd1fd0a4f28419497f9722a3daafe3b4186f6b6457e08484a3f35b60646040517f08c379a000000000000000000000000000000000000000000000000000000000815260206004820152601660248201527f4d7573742062652070726f706f736564206f776e6572000000000000000000006044820152fd5b503461000e57602060031936011261000e5773ffffffffffffffffffffffffffffffffffffffff60043561139581610cdc565b16600052600260205260206bffffffffffffffffffffffff60406000205460101c16604051908152f35b503461000e57602060031936011261000e577f1b930366dfeaa7eb3b325021e4ae81e36527063452ee55b86c95f85b36f4c31c60206004356113ff615bf0565b80601155604051908152a1005b503461000e57600060031936011261000e57602069ffffffffffffffffffff60095416604051908152f35b503461000e57600060031936011261000e576020600654604051908152f35b503461000e57600060031936011261000e57602060405173ffffffffffffffffffffffffffffffffffffffff7f0000000000000000000000000000000000000000000000000000000000000000168152f35b503461000e57602060031936011261000e5760206106476004356114cb81610cdc565b614be7565b503461000e57600060031936011261000e57600554604080517f0000000000000000000000000000000000000000000000000000000000000000815260b09290921c602083015290f35b503461000e57602060031936011261000e5767ffffffffffffffff60043581811161000e573660238201121561000e57806004013591821161000e576024810190602483369201011161000e5761156f6149cc565b6116f05773ffffffffffffffffffffffffffffffffffffffff91826115a9600f5473ffffffffffffffffffffffffffffffffffffffff1690565b1615610e0f576116989260209260006107396116626116236115ca336154ae565b9194907f667838b33bdc898470de09e0e746990f2adc11b965b7fe6828e502ebc39e0434604051806116018d8c88878d3387614055565b0390a1600f5473ffffffffffffffffffffffffffffffffffffffff1695613407565b93611636604051978892338b8501614094565b037fffffffffffffffffffffffffffffffffffffffffffffffffffffffffffffffe08101875286611d2e565b604051968795869485937f4000aea0000000000000000000000000000000000000000000000000000000008552600485016140c1565b03927f0000000000000000000000000000000000000000000000000000000000000000165af180156116e3575b6116cc575b005b6116ca9060203d81116107f3576107e48183611d2e565b6116eb61388c565b6116c5565b60446040517fa30a70c20000000000000000000000000000000000000000000000000000000081526001600482015260006024820152fd5b503461000e57606060031936011261000e576044356004803560243561174c615bf0565b611754615829565b818411611aaa576005546bffffffffffffffffffffffff811690838211611a75578269ffffffffffffffffffff8260601c1611611a4057859060b01c11611a075761179d615838565b936117df6117bc876106376117b660208a015160ff1690565b60ff1690565b6117d9610aa16040809901516bffffffffffffffffffffffff1690565b90613407565b84106119d35750938291611839936000960361195e575b806118136110f260055469ffffffffffffffffffff9060601c1690565b036118cd575b508061182a6110f260055460b01c90565b0361183c575b506110d961591f565b51f35b6118c4816118b561186d7f816587cb2e773af4f3689a03d7520fabff3462605ded374b485b13994c0d7b529461381a565b75ffffffffffffffffffffffffffffffffffffffffffff7fffffffffffffffffffff000000000000000000000000000000000000000000006005549260b01b16911617600555565b85519081529081906020820190565b0390a138611830565b611955816119466118fe7fb5f554e5ef00806bace1edbb84186512ebcefa2af7706085143f501f29314df79461381a565b7fffffffffffffffffffff00000000000000000000ffffffffffffffffffffffff75ffffffffffffffffffff0000000000000000000000006005549260601b16911617600555565b86519081529081906020820190565b0390a138611819565b6119a361196a8461385b565b6bffffffffffffffffffffffff167fffffffffffffffffffffffffffffffffffffffff0000000000000000000000006005541617600555565b84518381527f7f4f497e086b2eb55f8a9885ba00d33399bbe0ebcb92ea092834386435a1b9c090602090a16117f6565b84517fbc91aa3300000000000000000000000000000000000000000000000000000000815290810186815281906020010390fd5b50506040517fbc91aa33000000000000000000000000000000000000000000000000000000008152918201928352509081906020010390fd5b6040517fbc91aa3300000000000000000000000000000000000000000000000000000000815280860184815281906020010390fd5b6040517f1f3c387600000000000000000000000000000000000000000000000000000000815280860185815281906020010390fd5b50506040517fbc91aa330000000000000000000000000000000000000000000000000000000081529081019182529081906020010390fd5b503461000e57600060031936011261000e57602073ffffffffffffffffffffffffffffffffffffffff60005416604051908152f35b503461000e57604060031936011261000e57611b31615bf0565b60115415611c6757611b627f0000000000000000000000000000000000000000000000000000000000000000615881565b6040517f23b872dd0000000000000000000000000000000000000000000000000000000081523360048083019190915230602483015235604482015260208160648160007f000000000000000000000000000000000000000000000000000000000000000073ffffffffffffffffffffffffffffffffffffffff165af18015611c5a575b611c3c575b6116ca611c08610aa16005546bffffffffffffffffffffffff1690565b611c106149e3565b907f00000000000000000000000000000000000000000000000000000000000000009060243590613899565b611c539060203d81116107f3576107e48183611d2e565b5038611beb565b611c6261388c565b611be6565b60046040517f9f8a28f2000000000000000000000000000000000000000000000000000000008152fd5b503461000e57602060031936011261000e576020610647600435611cb481610cdc565b614acb565b507f4e487b7100000000000000000000000000000000000000000000000000000000600052604160045260246000fd5b6080810190811067ffffffffffffffff821117611d0557604052565b611d0d611cb9565b604052565b6040810190811067ffffffffffffffff821117611d0557604052565b90601f7fffffffffffffffffffffffffffffffffffffffffffffffffffffffffffffffe0910116810190811067ffffffffffffffff821117611d0557604052565b60209067ffffffffffffffff8111611d89575b60051b0190565b611d91611cb9565b611d82565b503461000e57604060031936011261000e57600435611db481610cdc565b6024359067ffffffffffffffff821161000e573660238301121561000e578160040135611de081611d6f565b92611dee6040519485611d2e565b81845260209160248386019160051b8301019136831161000e57602401905b828210611e335761048c611e2187876132a6565b60405190151581529081906020820190565b81358152908301908301611e0d565b90602060031983011261000e5760043567ffffffffffffffff9283821161000e578060238301121561000e57816004013593841161000e5760248460051b8301011161000e576024019190565b503461000e57611e9e36611e42565b90611ea7615bf0565b63ffffffff600c54161515806121ec575b6121b457611ed4611ece6110f260055460b01c90565b83613380565b611edc61594d565b80821161217957505060005b828110611f49576116ca611f1584611f0f611f0960045460ff9060081c1690565b91613f85565b90615267565b7fffffffffffffffffffffffffffffffffffffffffffffffffffffffffffff00ff61ff006004549260081b16911617600455565b611f8f611f88611f62611f5d848787613ed4565b613eec565b73ffffffffffffffffffffffffffffffffffffffff166000526002602052604060002090565b5460ff1690565b61211c57611fbf610aa1611faa611f62611f5d858888613ed4565b5460101c6bffffffffffffffffffffffff1690565b6120be57611fda610aa1610a8c611f62611f5d858888613ed4565b6120605780612021611ff6611f62611f5d61205b958888613ed4565b60017fffffffffffffffffffffffffffffffffffffffffffffffffffffffffffffff00825416179055565b7fac6fa858e9350a46cec16539926e0fde25b7629f84b5a72bffaae4df888ae86d612053610de3611f5d848888613ed4565b0390a1613e76565b611ee8565b611f5d90610bfa9361207193613ed4565b6040517f7a378b9c00000000000000000000000000000000000000000000000000000000815273ffffffffffffffffffffffffffffffffffffffff90911660048201529081906024820190565b611f5d90610bfa936120cf93613ed4565b6040517f602d4d1100000000000000000000000000000000000000000000000000000000815273ffffffffffffffffffffffffffffffffffffffff90911660048201529081906024820190565b611f5d90610bfa9361212d93613ed4565b6040517ea5216600000000000000000000000000000000000000000000000000000000815273ffffffffffffffffffffffffffffffffffffffff90911660048201529081906024820190565b6040517f35cf446b00000000000000000000000000000000000000000000000000000000815260048101919091526024810191909152604490fd5b60446040517fa30a70c20000000000000000000000000000000000000000000000000000000081526000600482015260016024820152fd5b506121f56149cc565b15611eb8565b7fffffffffffffffffffffffffffffffffffffffffffffffffffffffffffffffe0601f60209267ffffffffffffffff8111612237575b01160190565b61223f611cb9565b612231565b503461000e57606060031936011261000e5760043561226281610cdc565b6044359067ffffffffffffffff821161000e573660238301121561000e5781600401359061228f826121fb565b9161229d6040519384611d2e565b808352366024828601011161000e5760208160009260246116ca9701838701378401015260243590614cb0565b503461000e57600060031936011261000e576020610647614c70565b503461000e576122f536611e42565b6122fd615bf0565b60005b6003548110156123725780612368612340611f6261232061236d956159a8565b905473ffffffffffffffffffffffffffffffffffffffff9160031b1c1690565b7fffffffffffffffffffffffffffffffffffffffffffffffffffffffffffff00ff8154169055565b613e76565b612300565b5061237b6159ed565b60005b8181106123c15750816123b2827f40aed8e423b39a56b445ae160f4c071fc2cfb48ee0b6dcd5ffeb6bc5b18d10d094615a40565b610e0a60405192839283615b1d565b6123cf611f5d828486613ed4565b6124036123ff611f888373ffffffffffffffffffffffffffffffffffffffff166000526002602052604060002090565b1590565b6124ec5761243e6124348273ffffffffffffffffffffffffffffffffffffffff166000526002602052604060002090565b5460081c60ff1690565b6124a4579061236861247361249f9373ffffffffffffffffffffffffffffffffffffffff166000526002602052604060002090565b6101007fffffffffffffffffffffffffffffffffffffffffffffffffffffffffffff00ff825416179055565b61237e565b6040517ea5216600000000000000000000000000000000000000000000000000000000815273ffffffffffffffffffffffffffffffffffffffff919091166004820152602490fd5b6040517feac13dcd00000000000000000000000000000000000000000000000000000000815273ffffffffffffffffffffffffffffffffffffffff919091166004820152602490fd5b503461000e57602060031936011261000e5760206106ba60043561255881610cdc565b614827565b503461000e5761256c36611e42565b90612575615bf0565b61257d615829565b61258d612588614c70565b613b20565b60005b8281106125b4576116ca611f156125a685613f85565b60045460081c60ff16613f71565b6125c2611f5d828585613ed4565b6125f46125ef8273ffffffffffffffffffffffffffffffffffffffff166000526002602052604060002090565b613ef6565b906126026123ff8351151590565b6124ec5760208201516129f6576126df92917f2360404a74478febece1a14f11275f22ada88d19ef96f7d785913010bfff447991612053612656610aa16040809501516bffffffffffffffffffffffff1690565b92836126e4575b6126b261268a8473ffffffffffffffffffffffffffffffffffffffff166000526002602052604060002090565b7fffffffffffffffffffffffffffffffffffffffffffffffffffffffffffffff008154169055565b51928392836020909392919373ffffffffffffffffffffffffffffffffffffffff60408201951681520152565b612590565b6127f66127ac6126fb6126f686614acb565b61385b565b61275861271f600a9261271a84546bffffffffffffffffffffffff1690565b613c6c565b6bffffffffffffffffffffffff167fffffffffffffffffffffffffffffffffffffffff000000000000000000000000600a541617600a55565b61278761271f6127726126f661276c6137d4565b8b61376c565b83546bffffffffffffffffffffffff16613c6c565b61271a6127966126f688614be7565b915460601c6bffffffffffffffffffffffff1690565b7fffffffffffffffff000000000000000000000000ffffffffffffffffffffffff77ffffffffffffffffffffffff000000000000000000000000600a549260601b16911617600a55565b61283b61280d61280860085460ff1690565b613f40565b60ff167fffffffffffffffffffffffffffffffffffffffffffffffffffffffffffffff006008541617600855565b6128906128688473ffffffffffffffffffffffffffffffffffffffff166000526002602052604060002090565b7fffffffffffffffffffffffffffffffffffff000000000000000000000000ffff8154169055565b61299c610acd6bffffffffffffffffffffffff6128ac8761385b565b61291a6128ce8261271a6004546bffffffffffffffffffffffff9060701c1690565b7fffffffffffff000000000000000000000000ffffffffffffffffffffffffffff79ffffffffffffffffffffffff00000000000000000000000000006004549260701b16911617600455565b612993816129488973ffffffffffffffffffffffffffffffffffffffff166000526002602052604060002090565b907fffffffffffff000000000000000000000000ffffffffffffffffffffffffffff79ffffffffffffffffffffffff000000000000000000000000000083549260701b169116179055565b16600654613407565b6129f16129c98473ffffffffffffffffffffffffffffffffffffffff166000526007602052604060002090565b7fffffffffffffffffffffffffffffffffffffffff0000000000000000000000008154169055565b61265d565b6040517fded6031900000000000000000000000000000000000000000000000000000000815273ffffffffffffffffffffffffffffffffffffffff919091166004820152602490fd5b503461000e5760008060031936011261083f57612a5a615829565b612a8a610aa1611faa3373ffffffffffffffffffffffffffffffffffffffff166000526002602052604060002090565b8015612e0a5760409081517ffeaf968c00000000000000000000000000000000000000000000000000000000815273ffffffffffffffffffffffffffffffffffffffff9160a082600481867f0000000000000000000000000000000000000000000000000000000000000000165afa918215612dfd575b85908693612dbd575b5069ffffffffffffffffffff16916010548314612d8c57612b4b7f000000000000000000000000000000000000000000000000000000000000000082613407565b4210612d2d57612b7c907f000000000000000000000000000000000000000000000000000000000000000090613407565b4210908180612d56575b612d2d5792827fd2720e8f454493f612cc97499fe8cbce7fa4d4c18d346fe7104e9042df1c1edd612bc6612c21948997612bc1602098601055565b6157d1565b875133815260208101939093526040830181905291606090a185517fa9059cbb000000000000000000000000000000000000000000000000000000008152336004820152602481019190915293849283919082906044820190565b03927f0000000000000000000000000000000000000000000000000000000000000000165af18015612d20575b612d02575b50612cae612c5f614c70565b612c67613f93565b7f00000000000000000000000000000000000000000000000000000000000000007f0000000000000000000000000000000000000000000000000000000000000000614218565b611839612ccb610aa16005546bffffffffffffffffffffffff1690565b612cd361591f565b612ceb6110f260095469ffffffffffffffffffff1690565b612cf36149e3565b91612cfc614c70565b9361355e565b612d199060203d81116107f3576107e48183611d2e565b5038612c53565b612d2861388c565b612c4e565b600485517ffc53c50a000000000000000000000000000000000000000000000000000000008152fd5b50612d876123ff611f883373ffffffffffffffffffffffffffffffffffffffff166000526002602052604060002090565b612b86565b84517ff3553c2200000000000000000000000000000000000000000000000000000000815260048101849052602490fd5b69ffffffffffffffffffff9350612deb915060a03d8111612df6575b612de38183611d2e565b81019061410a565b50949150612b0a9050565b503d612dd9565b612e0561388c565b612b01565b60046040517fef67f5d8000000000000000000000000000000000000000000000000000000008152fd5b503461000e57600060031936011261000e5760206106476149e3565b503461000e57600060031936011261000e57612e6a615bf0565b612e72615829565b612e7a61591f565b612f437fffffffffffffffff00000000000000000000000000000000000000000000000077ffffffffffffffffffffffff000000000000000000000000612f73612f27612f21612f1b612ecb614c70565b97612ed589613b20565b612edd613a4f565b888103908111612fd5575b610637612ef36137d4565b9169ffffffffffffffffffff60095416948591612f1b8561063764e8d4a51000998a94613380565b0461385b565b9a613380565b600a54956bffffffffffffffffffffffff958691828916613c6c565b1694857fffffffffffffffffffffffffffffffffffffffff00000000000000000000000088161760601c16613c6c565b60601b1692161717600a5542600b557fffffffffffffffffffffffffffffffffffffffffffffffffffffffffffffff006004541660045560006040517ff7d0e0f15586495da8c687328ead30fb829d9da55538cb0ef73dd229e517cdb88282a1f35b612fdd6132f5565b612ee8565b503461000e57600060031936011261000e57612ffc615bf0565b600d5473ffffffffffffffffffffffffffffffffffffffff168015610e0f57613026600e546133f7565b4210612e0a576130719073ffffffffffffffffffffffffffffffffffffffff167fffffffffffffffffffffffff0000000000000000000000000000000000000000600f541617600f55565b61309e7fffffffffffffffffffffffff0000000000000000000000000000000000000000600d5416600d55565b7ffa33c052bbee754f3c0482a89962daffe749191fa33c696a61e947fbfd68bd84610e0a610de3600f5473ffffffffffffffffffffffffffffffffffffffff1690565b503461000e5760008060031936011261083f576130fc615bf0565b6131046149cc565b6108075761077e60206131416131186149e3565b600a54906131366bffffffffffffffffffffffff9182841690613325565b9160601c1690613325565b6040518181527f150a6ec0e6f4e9ddcaaaa1674f157d91165a42d60653016f87a9fc870a39f050908060208101610b86565b503461000e57602060031936011261000e5773ffffffffffffffffffffffffffffffffffffffff6004356131a681610cdc565b6131ae615bf0565b1633811461324857806000917fffffffffffffffffffffffff0000000000000000000000000000000000000000600154161760015561321d613204835473ffffffffffffffffffffffffffffffffffffffff1690565b73ffffffffffffffffffffffffffffffffffffffff1690565b90604051917fed8889f560326eb138920d842192f0eb3dd22b4f139c87a2c57538e05bae12788484a3f35b60646040517f08c379a000000000000000000000000000000000000000000000000000000000815260206004820152601760248201527f43616e6e6f74207472616e7366657220746f2073656c660000000000000000006044820152fd5b9060115480156132ed576132ea9260405173ffffffffffffffffffffffffffffffffffffffff6020820192168252602081526132e181611d12565b51902091615b78565b90565b505050600190565b507f4e487b7100000000000000000000000000000000000000000000000000000000600052601160045260246000fd5b9190820391821161333257565b61333a6132f5565b565b64e8d4a5100090807fffffffffffffffffffffffffffffffffffffffffffffffffffffffffffffffff04821181151516613374570290565b61337c6132f5565b0290565b807fffffffffffffffffffffffffffffffffffffffffffffffffffffffffffffffff04821181151516613374570290565b507f4e487b7100000000000000000000000000000000000000000000000000000000600052601260045260246000fd5b81156133eb570490565b6133f36133b1565b0490565b9062093a80820180921161333257565b9190820180921161333257565b9293949161347990613473613429858561378f565b9561346d61344a613439886137f1565b8b8a829d0390811161355157613325565b6134626110f260095469ffffffffffffffffffff1690565b85036135095761333c565b92613380565b906133e1565b9384106134df576134da9464e8d4a510006134cd86610637866134b861271f6126f66134d49b6117d9876134b36127ac9e6126f69e613325565b61376c565b69ffffffffffffffffffff6009541690613380565b0490613407565b42613407565b600b55565b60046040517fda056d00000000000000000000000000000000000000000000000000000000008152fd5b61354c6135158661381a565b69ffffffffffffffffffff167fffffffffffffffffffffffffffffffffffffffffffff000000000000000000006009541617600955565b61333c565b6135596132f5565b613325565b9284919261356c838561378f565b906135af613579856137f1565b968385039485116136c0575b8785039485116136b3575b61346d69ffffffffffffffffffff95866009541685036135095761333c565b9081156136a6575b046135c481978296613325565b906135ce9161376c565b6135d791613407565b6135e09061385b565b61361d906bffffffffffffffffffffffff167fffffffffffffffffffffffffffffffffffffffff000000000000000000000000600a541617600a55565b6009541661362a91613380565b9061363491613380565b64e8d4a51000900461364591613407565b61364e9061385b565b61369c907fffffffffffffffff000000000000000000000000ffffffffffffffffffffffff77ffffffffffffffffffffffff000000000000000000000000600a549260601b16911617600a55565b6134da9042613407565b6136ae6133b1565b6135b7565b6136bb6132f5565b613590565b6136c86132f5565b613585565b61355993916134736137339261346d600a5469ffffffffffffffffffff6137266bffffffffffffffffffffffff988984169b8c9a6137096137d4565b506009549560601c169a8b92600b54428111613750575b50613325565b911685036135095761333c565b9182106134df576127ac6134d4916126f661271f6134da9661385b565b4281031161375f575b38613720565b6137676132f5565b613759565b64e8d4a51000916106376133f39269ffffffffffffffffffff6009541690613380565b6137bf64e8d4a51000916bffffffffffffffffffffffff600a541693810390811161065c576106376106216137d4565b0481039081116137cc5790565b6132ea6132f5565b600b544281116137e45750600090565b4281039081116137cc5790565b64e8d4a510006137bf6bffffffffffffffffffffffff600a5460601c16926106376106216137d4565b69ffffffffffffffffffff90818111613831571690565b60046040517f811752de000000000000000000000000000000000000000000000000000000008152fd5b6bffffffffffffffffffffffff90818111613831571690565b9081602091031261000e5751801515810361000e5790565b506040513d6000823e3d90fd5b600c5463ffffffff949385821661000e57836139d9936139d47f125fc8494f786b470e3c39d0932a62e9e09e291ebd81ea19c57604f6d2b1d16798889569ffffffffffffffffffff6138ea8661381a565b167fffffffffffffffffffffffffffffffffffffffffffff0000000000000000000060095416176009557fffffffffffffffffffffffffffffffffffffffffffffffffffffffff0000000061393e42613a1e565b928316911617600c556008547fffffffffffffffffffffffffffffff00000000ffffffffffffffffffffffffff70ffffffff000000000000000000000000008360681b169116176008557fffffffffffff00000000ffffffffffffffffffffffffffffffffffffffffffff79ffffffff000000000000000000000000000000000000000000006009549260b01b16911617600955565b6136cd565b613a196139eb600c5463ffffffff1690565b600b5490604051948594859094939263ffffffff906060936080840197845260208401521660408201520152565b0390a1565b63ffffffff90818111613831571690565b9190916bffffffffffffffffffffffff8080941691160191821161333257565b613a5c600b544290615bde565b600954907fffffffffffff00000000000000000000000000000000ffffffffffffffffffff79ffffffff00000000000000000000000000000000000000000000613b0675ffffffffffffffffffffffff00000000000000000000613afc613ae56126f663ffffffff8960b01c168803888111613b13575b69ffffffffffffffffffff8a16613380565b6bffffffffffffffffffffffff8860501c16613a2f565b60501b1693613a1e565b60b01b1692161717600955565b613b1b6132f5565b613ad3565b6126f6613b2c91613b97565b6008547fffffffffffffffffffffffffffffff00000000000000000000000000000000ff6cffffffffffffffffffffffff0070ffffffff00000000000000000000000000613b85613b80600b544290615bde565b613a1e565b60681b169360081b1691161717600855565b6132ea90613ba7600b5442101590565b15613c23576bffffffffffffffffffffffff613c1964e8d4a51000613c0c613bf0600b54613bea613be160085463ffffffff9060681c1690565b63ffffffff1690565b90613325565b6106376008549669ffffffffffffffffffff6009541690613380565b0461347360ff8516615bd3565b9160081c16613407565b6bffffffffffffffffffffffff613c1964e8d4a51000613c0c613c49600b544290615bde565b63ffffffff60085460681c16810390811115613bf057613c676132f5565b613bf0565b6bffffffffffffffffffffffff918216908216039190821161333257565b6001906bffffffffffffffffffffffff809116908114613ca8570190565b613cb06132f5565b0190565b6127ac9061333a92613cc46137d4565b69ffffffffffffffffffff6009541691610637613d0284612f1b85610637613cfb8a612f1b64e8d4a510009a8b998a988994613380565b9887613380565b9406613d76575b06613d61575b613d50907fffffffffffffffffffffffffffffffffffffffff000000000000000000000000600a54916bffffffffffffffffffffffff938491828516613a2f565b1691161780600a5560601c16613a2f565b90613d6e613d5091613c8a565b919050613d0f565b91613d8090613c8a565b91613d09565b613dfe61333a9164e8d4a51000613dba81612f1b613da26137d4565b61063769ffffffffffffffffffff6009541687613380565b9106613e68575b600a547fffffffffffffffffffffffffffffffffffffffff0000000000000000000000006bffffffffffffffffffffffff80948194828516613a2f565b1691161780600a5560601c16908111613e5b577fffffffffffffffff000000000000000000000000ffffffffffffffffffffffff77ffffffffffffffffffffffff000000000000000000000000600a549260601b16911617600a55565b613e636132f5565b6127ac565b613e7190613c8a565b613dc1565b6001907fffffffffffffffffffffffffffffffffffffffffffffffffffffffffffffffff8114613ca8570190565b507f4e487b7100000000000000000000000000000000000000000000000000000000600052603260045260246000fd5b9190811015613ee45760051b0190565b611d91613ea4565b356132ea81610cdc565b90604051613f0381611ce9565b606081935460ff81161515835260ff8160081c16151560208401526bffffffffffffffffffffffff90818160101c16604085015260701c16910152565b60ff7fffffffffffffffffffffffffffffffffffffffffffffffffffffffffffffffff9116019060ff821161333257565b9060ff8091169116039060ff821161333257565b60ff81116138315760ff1690565b60405190600354808352826020918282019060036000527fc2575a0e9e593c00f959f8c92f12db2869c3395a3b0502d05e2516446f71f85b936000905b828210613fe65750505061333a92500383611d2e565b855473ffffffffffffffffffffffffffffffffffffffff1684526001958601958895509381019390910190613fd0565b601f82602094937fffffffffffffffffffffffffffffffffffffffffffffffffffffffffffffffe0938186528686013760008582860101520116010190565b919260a09373ffffffffffffffffffffffffffffffffffffffff6132ea9896931684526020840152604083015260608201528160808201520191614016565b60409073ffffffffffffffffffffffffffffffffffffffff6132ea95931681528160208201520191614016565b6132ea939273ffffffffffffffffffffffffffffffffffffffff6060931682526020820152816040820152019061050f565b519069ffffffffffffffffffff8216820361000e57565b908160a091031261000e5761411e816140f3565b916020820151916040810151916132ea6080606084015193016140f3565b9061414682611d6f565b6141536040519182611d2e565b8281527fffffffffffffffffffffffffffffffffffffffffffffffffffffffffffffffe06141818294611d6f565b0190602036910137565b60209181518110156141a0575b60051b010190565b6141a8613ea4565b614198565b90815180825260208080930193019160005b8281106141cd575050505090565b8351855293810193928101926001016141bf565b9161420a906141fc6132ea9593606086526060860190610c61565b9084820360208601526141ad565b9160408184039101526141ad565b939291909360ff61422b60085460ff1690565b16156143d4578264e8d4a510006142588761063761425f9569ffffffffffffffffffff6009541690613380565b04956143db565b916000918261426e825161413c565b94614279835161413c565b92855b8151871015614353576142ac614292888461418b565b5173ffffffffffffffffffffffffffffffffffffffff1690565b886142dd610aa1611faa8473ffffffffffffffffffffffffffffffffffffffff166000526002602052604060002090565b8c811561434457898461432c946143098e61430361433d9a976143379a61431098614467565b9261418b565b52886145d5565b61431a8b8a61418b565b526143258a8c61418b565b5190613407565b94614325898861418b565b96613e76565b959261427c565b50505050929561433d90613e76565b7e635ea9da6e262e92bb713d71840af7c567807ff35bf73e927490c6128324809899506143af919650613a1995506127ac9250926126f661271f6143996143c89661385b565b600a546bffffffffffffffffffffffff16613c6c565b600a5460601c6bffffffffffffffffffffffff16613c6c565b604051938493846141e1565b5050509050565b64e8d4a5100061444b60ff92610637604051956060870187811067ffffffffffffffff82111761445a575b60405263ffffffff60085487811689526bffffffffffffffffffffffff8160081c1660208a015260681c16604088015269ffffffffffffffffffff6009541690613380565b049151169081156133eb570490565b614462611cb9565b614406565b916145626145256132ea939461447f600b5442101590565b156145a6576144e96144de6144a2600b5463ffffffff60095460b01c1690613325565b955b6144d86144c06009549869ffffffffffffffffffff8a16613380565b6bffffffffffffffffffffffff809960501c16613407565b90613380565b64e8d4a51000900490565b90846145158873ffffffffffffffffffffffffffffffffffffffff166000526007602052604060002090565b5416820391821161459957615bde565b936145596145328661385b565b9173ffffffffffffffffffffffffffffffffffffffff166000526007602052604060002090565b92835416613a2f565b6bffffffffffffffffffffffff167fffffffffffffffffffffffffffffffffffffffff000000000000000000000000825416179055565b6145a16132f5565b615bde565b6144e96144de63ffffffff60095460b01c1642034281116145c8575b956144a4565b6145d06132f5565b6145c2565b916146b661469d6132ea93946145ed600b5442101590565b156146fe5761465e61464664e8d4a5100061463961461d600b54613bea613be160085463ffffffff9060681c1690565b6106376008549969ffffffffffffffffffff6009541690613380565b0461347360ff8816615bd3565b6bffffffffffffffffffffffff809660081c16613407565b908461468a8873ffffffffffffffffffffffffffffffffffffffff166000526007602052604060002090565b5460601c16820391821161459957615bde565b936146aa6145328661385b565b92835460601c16613a2f565b7fffffffffffffffff000000000000000000000000ffffffffffffffffffffffff77ffffffffffffffffffffffff00000000000000000000000083549260601b169116179055565b61465e61464664e8d4a5100061463961471a600b544290615bde565b63ffffffff60085460681c1681039081111561461d576147386132f5565b61461d565b600b546132ea916144de914281116147b15763ffffffff60095460b01c1681039081116147a4575b905b6147926009549269ffffffffffffffffffff6bffffffffffffffffffffffff8560501c169416613380565b820180921115613380576106376132f5565b6147ac6132f5565b614765565b5063ffffffff60095460b01c1642034281116147ce575b90614767565b6147d66132f5565b6147c8565b906147fa73ffffffffffffffffffffffffffffffffffffffff91613b97565b911660005260076020526bffffffffffffffffffffffff60406000205460601c1681039081116137cc5790565b614857610aa1611faa8373ffffffffffffffffffffffffffffffffffffffff166000526002602052604060002090565b156149c6576148676123ff6149cc565b6149c6576040517ffeaf968c00000000000000000000000000000000000000000000000000000000815260a08160048173ffffffffffffffffffffffffffffffffffffffff7f0000000000000000000000000000000000000000000000000000000000000000165afa9081156149b9575b6000908192614994575b5069ffffffffffffffffffff60105491161461498d576149227f000000000000000000000000000000000000000000000000000000000000000082613407565b421061498d57614953907f000000000000000000000000000000000000000000000000000000000000000090613407565b42101561498757611f886132ea9173ffffffffffffffffffffffffffffffffffffffff166000526002602052604060002090565b50600190565b5050600090565b90506149ae915060a03d8111612df657612de38183611d2e565b5092915050386148e2565b6149c161388c565b6148d8565b50600090565b60ff60045416806149da5790565b50600b54421090565b6040517f70a0823100000000000000000000000000000000000000000000000000000000815230600482015260208160248173ffffffffffffffffffffffffffffffffffffffff7f0000000000000000000000000000000000000000000000000000000000000000165afa908115614abe575b600091614a8d575b50614a6761591f565b8103908111614a80575b60065481039081116137cc5790565b614a886132f5565b614a71565b906020823d8211614ab6575b81614aa660209383611d2e565b8101031261083f57505138614a5e565b3d9150614a99565b614ac661388c565b614a56565b73ffffffffffffffffffffffffffffffffffffffff81169060009180835260026020526bffffffffffffffffffffffff80604085205460101c16938415614bbc5760ff604082205416614b9657505050613bea610aa1614b84614b5d614b586132ea96613bea7f0000000000000000000000000000000000000000000000000000000000000000826133e1565b61473d565b9373ffffffffffffffffffffffffffffffffffffffff166000526007602052604060002090565b546bffffffffffffffffffffffff1690565b909250614ba56040929461473d565b938152600760205220541681039081116137cc5790565b935050505090565b908015614bda575b810481039081116137cc5790565b614be26133b1565b614bcc565b73ffffffffffffffffffffffffffffffffffffffff81166000526002602052604060002060405190614c1882611ce9565b549060ff821615908115815260ff8360081c161515602082015260606bffffffffffffffffffffffff808560101c169485604085015260701c1691015261498d57156149c6576132ea90614c6a614c70565b906147db565b6bffffffffffffffffffffffff60045460101c167f00000000000000000000000000000000000000000000000000000000000000009081156133eb570490565b9173ffffffffffffffffffffffffffffffffffffffff7f0000000000000000000000000000000000000000000000000000000000000000163303614e2757614d0060ff60015460a01c1615614e51565b614d08615829565b64e8d4a510008210614df157614d41611f888473ffffffffffffffffffffffffffffffffffffffff166000526002602052604060002090565b15614d50575061333a9161527b565b6011549081614d65575b505061333a91614f30565b805115612e0a57614de691614d86826020806123ff95518301019101614eb6565b9060405160208101906132e181614dba8a8591909173ffffffffffffffffffffffffffffffffffffffff6020820193169052565b037fffffffffffffffffffffffffffffffffffffffffffffffffffffffffffffffe08101835282611d2e565b612e0a573880614d5a565b6040517f1d820b1700000000000000000000000000000000000000000000000000000000815264e8d4a510006004820152602490fd5b60046040517f4d695438000000000000000000000000000000000000000000000000000000008152fd5b15614e5857565b60646040517f08c379a000000000000000000000000000000000000000000000000000000000815260206004820152601060248201527f5061757361626c653a20706175736564000000000000000000000000000000006044820152fd5b602090818184031261000e5780519067ffffffffffffffff821161000e57019180601f8401121561000e578251614eec81611d6f565b93614efa6040519586611d2e565b818552838086019260051b82010192831161000e578301905b828210614f21575050505090565b81518152908301908301614f13565b9190614f62610aa1611faa8573ffffffffffffffffffffffffffffffffffffffff166000526002602052604060002090565b92614f6d8285613407565b937f00000000000000000000000000000000000000000000000000000000000000008086106152225750600554614fb29060601c69ffffffffffffffffffff166110f2565b8086116151de575050614fc361594d565b8083116151ab5750613a197f1449c6dd7851abc30abf37f57715f492010519147cc2652fbc38202c18a6ee909394614ffc612588614c70565b61509b7f000000000000000000000000000000000000000000000000000000000000000061509561503661503083896133e1565b88613325565b9161508f6150466126f68561473d565b6145626150738a73ffffffffffffffffffffffffffffffffffffffff166000526007602052604060002090565b9161508a83546bffffffffffffffffffffffff1690565b613a2f565b876133e1565b90613cb4565b6151036150c36150aa8661385b565b60045460101c6bffffffffffffffffffffffff16613a2f565b7fffffffffffffffffffffffffffffffffffff000000000000000000000000ffff6dffffffffffffffffffffffff00006004549260101b16911617600455565b61517861510f8261385b565b6151398573ffffffffffffffffffffffffffffffffffffffff166000526002602052604060002090565b907fffffffffffffffffffffffffffffffffffff000000000000000000000000ffff6dffffffffffffffffffffffff000083549260101b169116179055565b6040519384938460409194939273ffffffffffffffffffffffffffffffffffffffff606083019616825260208201520152565b6040517fb94339d80000000000000000000000000000000000000000000000000000000081526004810191909152602490fd5b610bfa916151eb91613325565b6040519182917fb94339d8000000000000000000000000000000000000000000000000000000008352600483019190602083019252565b6040517f1d820b170000000000000000000000000000000000000000000000000000000081526004810191909152602490fd5b60ff60019116019060ff821161333257565b9060ff8091169116019060ff821161333257565b91906152ad610aa1611faa8573ffffffffffffffffffffffffffffffffffffffff166000526002602052604060002090565b926152b88285613407565b937f000000000000000000000000000000000000000000000000000000000000000080861061522257506152f16110f260055460b01c90565b8086116151de57507f1449c6dd7851abc30abf37f57715f492010519147cc2652fbc38202c18a6ee909394613a199115615393575b6153626153356126f68661473d565b6145626150738673ffffffffffffffffffffffffffffffffffffffff166000526007602052604060002090565b61538a6128ce6153718661385b565b60045460701c6bffffffffffffffffffffffff16613a2f565b61510384613d86565b61539e612588614c70565b6153b961280d60085460ff8116908115615448575b50615255565b60088054615443911c6bffffffffffffffffffffffff166153fa8573ffffffffffffffffffffffffffffffffffffffff166000526007602052604060002090565b907fffffffffffffffff000000000000000000000000ffffffffffffffffffffffff77ffffffffffffffffffffffff00000000000000000000000083549260601b169116179055565b615326565b6127ac6bffffffffffffffffffffffff61547b9260081c1661271a600a546bffffffffffffffffffffffff9060601c1690565b6154a87fffffffffffffffffffffffffffffffffffffff000000000000000000000000ff60085416600855565b386153b3565b6154db6125ef8273ffffffffffffffffffffffffffffffffffffffff166000526002602052604060002090565b9160408301926bffffffffffffffffffffffff908161550686516bffffffffffffffffffffffff1690565b1615615732576155279061551c60045460ff1690565b6156ed575b51151590565b1561565357506155626128ce61554985516bffffffffffffffffffffffff1690565b60045460701c6bffffffffffffffffffffffff16613c6c565b61564e610aa161558a84615585610aa188516bffffffffffffffffffffffff1690565b615779565b9461561e6128686155f76155b2610aa16008546bffffffffffffffffffffffff9060081c1690565b613bea610aa16155e28b73ffffffffffffffffffffffffffffffffffffffff166000526007602052604060002090565b5460601c6bffffffffffffffffffffffff1690565b9673ffffffffffffffffffffffffffffffffffffffff166000526002602052604060002090565b61562d61271f6143998861385b565b61563c6127ac6143af8761385b565b516bffffffffffffffffffffffff1690565b929190565b836156d76128686155f786615585610aa19661569f6150c36156866156e69b9c9d516bffffffffffffffffffffffff1690565b60045460101c6bffffffffffffffffffffffff16613c6c565b86516bffffffffffffffffffffffff167f00000000000000000000000000000000000000000000000000000000000000009116614bc4565b61563c61271f6143998761385b565b9190600090565b6156f8612588614c70565b615700613a4f565b61572d7fffffffffffffffffffffffffffffffffffffffffffffffffffffffffffffff0060045416600455565b615521565b6040517fe4adde7200000000000000000000000000000000000000000000000000000000815273ffffffffffffffffffffffffffffffffffffffff85166004820152602490fd5b73ffffffffffffffffffffffffffffffffffffffff64e8d4a510006157b36bffffffffffffffffffffffff938460095460501c1690613380565b04921660005260076020526040600020541681039081116137cc5790565b90615804576132ea9060057f00000000000000000000000000000000000000000000000000000000000000009104615bde565b507f000000000000000000000000000000000000000000000000000000000000000090565b6158316149cc565b156121b457565b6040519061584582611ce9565b81606060045460ff81161515835260ff8160081c1660208401526bffffffffffffffffffffffff90818160101c16604085015260701c16910152565b6004549060ff8260081c16908082106158e85750507fffffffffffffffffffffffffffffffffffffffffffffffffffffffffffffff0060019116176004557fded6ebf04e261e1eb2f3e3b268a2e6aee5b478c15b341eba5cf18b9bc80c2e636000604051a1565b60449250604051917fe709379900000000000000000000000000000000000000000000000000000000835260048301526024820152fd5b615927615838565b6bffffffffffffffffffffffff6060816040840151169201511681018091116137cc5790565b615955615838565b6005549060406bffffffffffffffffffffffff916159828385169460ff6020840151169060b01c90613380565b840393841161599b575b01511681039081116137cc5790565b6159a36132f5565b61598c565b6003548110156159e0575b60036000527fc2575a0e9e593c00f959f8c92f12db2869c3395a3b0502d05e2516446f71f85b0190600090565b6159e8613ea4565b6159b3565b600354600080600355816159ff575050565b600381527fc2575a0e9e593c00f959f8c92f12db2869c3395a3b0502d05e2516446f71f85b918201915b828110615a3557505050565b818155600101615a29565b67ffffffffffffffff8211615b10575b680100000000000000008211615b03575b60035482600355808310615ac2575b50600360005260005b828110615a8557505050565b60019060208335615a9581610cdc565b930192817fc2575a0e9e593c00f959f8c92f12db2869c3395a3b0502d05e2516446f71f85b015501615a79565b827fc2575a0e9e593c00f959f8c92f12db2869c3395a3b0502d05e2516446f71f85b91820191015b818110615af75750615a70565b60008155600101615aea565b615b0b611cb9565b615a61565b615b18611cb9565b615a50565b90916040602092828482018583525201929160005b828110615b40575050505090565b90919293828060019273ffffffffffffffffffffffffffffffffffffffff8835615b6981610cdc565b16815201950193929101615b32565b929091906000915b8451831015615bcb57615b93838661418b565b5190818111615bb657600052602052615bb0604060002092613e76565b91615b80565b90600052602052615bb0604060002092613e76565b915092501490565b600181106149875790565b9080821015615beb575090565b905090565b73ffffffffffffffffffffffffffffffffffffffff600054163303615c1157565b60646040517f08c379a000000000000000000000000000000000000000000000000000000000815260206004820152601660248201527f4f6e6c792063616c6c61626c65206279206f776e6572000000000000000000006044820152fdfea164736f6c6343000810000a",
    "linkReferences": {}
  },
  "methodIdentifiers": {
    "acceptMigrationTarget()": "e937fdaa",
    "acceptOwnership()": "79ba5097",
    "addOperators(address[])": "a07aea1c",
    "addReward(uint256)": "74de4ec4",
    "canAlert(address)": "c1852f58",
    "changeRewardRate(uint256)": "74f237c4",
    "conclude()": "e5f92973",
    "emergencyPause()": "51858e27",
    "emergencyUnpause()": "4a4e3bd5",
    "getAvailableReward()": "e0974ea5",
    "getBaseReward(address)": "9a109bc2",
    "getChainlinkToken()": "165d35e1",
    "getCommunityStakerLimits()": "0641bdd8",
    "getDelegatesCount()": "32e28850",
    "getDelegationRateDenominator()": "5e8b40d7",
    "getDelegationReward(address)": "87e900b1",
    "getEarnedBaseRewards()": "1a9d4c7c",
    "getEarnedDelegationRewards()": "74104002",
    "getFeedOperators()": "5fec60f8",
    "getMaxPoolSize()": "0fbc8f5b",
    "getMerkleRoot()": "49590657",
    "getMigrationTarget()": "1ddb5552",
    "getMonitoredFeed()": "83db28a0",
    "getOperatorLimits()": "8856398f",
    "getRewardRate()": "7e1a3786",
    "getRewardTimestamps()": "59f01879",
    "getStake(address)": "7a766460",
    "getTotalCommunityStakedAmount()": "049b2ca0",
    "getTotalDelegatedAmount()": "a7a2f5aa",
    "getTotalRemovedAmount()": "8019e7d0",
    "getTotalStakedAmount()": "38adb6f0",
    "hasAccess(address,bytes32[])": "9d0a3864",
    "isActive()": "22f3e2d4",
    "isOperator(address)": "6d70f7ae",
    "isPaused()": "b187bd26",
    "migrate(bytes)": "8932a90d",
    "onTokenTransfer(address,uint256,bytes)": "a4c0ed36",
    "owner()": "8da5cb5b",
    "paused()": "5c975abb",
    "proposeMigrationTarget(address)": "63b2c85a",
    "raiseAlert()": "da9c732f",
    "removeOperators(address[])": "d365a377",
    "setFeedOperators(address[])": "bfbd9b1b",
    "setMerkleRoot(bytes32)": "7cb64759",
    "setPoolConfig(uint256,uint256,uint256)": "8a44f337",
    "start(uint256,uint256)": "8fb4b573",
    "transferOwnership(address)": "f2fde38b",
    "typeAndVersion()": "181f5a77",
    "unstake()": "2def6620",
    "withdrawRemovedStake()": "5aa6e013",
    "withdrawUnusedReward()": "ebdb56f3"
  },
  "id": 2
}